{
  "_format": "hh-sol-artifact-1",
  "contractName": "Zackathon",
  "sourceName": "contracts/zackathon.sol",
  "abi": [
    {
      "inputs": [],
      "stateMutability": "nonpayable",
      "type": "constructor"
    },
    {
      "inputs": [],
      "name": "InvalidKMSSignatures",
      "type": "error"
    },
    {
      "inputs": [],
      "name": "ZamaProtocolUnsupported",
      "type": "error"
    },
    {
      "anonymous": false,
      "inputs": [
        {
          "indexed": true,
          "internalType": "uint256",
          "name": "hackathonId",
          "type": "uint256"
        },
        {
          "indexed": false,
          "internalType": "string",
          "name": "name",
          "type": "string"
        },
        {
          "indexed": true,
          "internalType": "address",
          "name": "organizer",
          "type": "address"
        },
        {
          "indexed": false,
          "internalType": "uint256",
          "name": "submissionDeadline",
          "type": "uint256"
        },
        {
          "indexed": false,
          "internalType": "uint256",
          "name": "judgingDeadline",
          "type": "uint256"
        }
      ],
      "name": "HackathonCreated",
      "type": "event"
    },
    {
      "anonymous": false,
      "inputs": [
        {
          "indexed": true,
          "internalType": "uint256",
          "name": "hackathonId",
          "type": "uint256"
        },
        {
          "indexed": false,
          "internalType": "uint256",
          "name": "submissionCount",
          "type": "uint256"
        }
      ],
      "name": "JudgeAccessGranted",
      "type": "event"
    },
    {
      "anonymous": false,
      "inputs": [
        {
          "indexed": true,
          "internalType": "uint256",
          "name": "hackathonId",
          "type": "uint256"
        },
        {
          "indexed": true,
          "internalType": "address",
          "name": "participant",
          "type": "address"
        },
        {
          "indexed": false,
          "internalType": "string",
          "name": "email",
          "type": "string"
        }
      ],
      "name": "ParticipantRegistered",
      "type": "event"
    },
    {
      "anonymous": false,
      "inputs": [
        {
          "indexed": true,
          "internalType": "uint256",
          "name": "hackathonId",
          "type": "uint256"
        },
        {
          "indexed": true,
          "internalType": "uint256",
          "name": "submissionId",
          "type": "uint256"
        },
        {
          "indexed": true,
          "internalType": "address",
          "name": "participant",
          "type": "address"
        },
        {
          "indexed": false,
          "internalType": "uint256",
          "name": "submissionTime",
          "type": "uint256"
        }
      ],
      "name": "ProjectSubmitted",
      "type": "event"
    },
    {
      "anonymous": false,
      "inputs": [
        {
          "indexed": false,
          "internalType": "bytes32[]",
          "name": "handlesList",
          "type": "bytes32[]"
        },
        {
          "indexed": false,
          "internalType": "bytes",
          "name": "abiEncodedCleartexts",
          "type": "bytes"
        }
      ],
      "name": "PublicDecryptionVerified",
      "type": "event"
    },
    {
      "anonymous": false,
      "inputs": [
        {
          "indexed": true,
          "internalType": "uint256",
          "name": "hackathonId",
          "type": "uint256"
        },
        {
          "indexed": true,
          "internalType": "uint256",
          "name": "submissionId",
          "type": "uint256"
        },
        {
          "indexed": false,
          "internalType": "uint256",
          "name": "score",
          "type": "uint256"
        }
      ],
      "name": "ScoreDecrypted",
      "type": "event"
    },
    {
      "anonymous": false,
      "inputs": [
        {
          "indexed": true,
          "internalType": "uint256",
          "name": "hackathonId",
          "type": "uint256"
        },
        {
          "indexed": true,
          "internalType": "uint256",
          "name": "submissionId",
          "type": "uint256"
        },
        {
          "indexed": true,
          "internalType": "address",
          "name": "judge",
          "type": "address"
        }
      ],
      "name": "ScoreSubmitted",
      "type": "event"
    },
    {
      "anonymous": false,
      "inputs": [
        {
          "indexed": true,
          "internalType": "uint256",
          "name": "hackathonId",
          "type": "uint256"
        },
        {
          "indexed": true,
          "internalType": "address",
          "name": "firstPlace",
          "type": "address"
        },
        {
          "indexed": true,
          "internalType": "address",
          "name": "secondPlace",
          "type": "address"
        },
        {
          "indexed": false,
          "internalType": "address",
          "name": "thirdPlace",
          "type": "address"
        }
      ],
      "name": "WinnersAnnounced",
      "type": "event"
    },
    {
      "anonymous": false,
      "inputs": [
        {
          "indexed": true,
          "internalType": "uint256",
          "name": "hackathonId",
          "type": "uint256"
        },
        {
          "indexed": false,
          "internalType": "uint256",
          "name": "winnerCount",
          "type": "uint256"
        }
      ],
      "name": "WinnersCalculated",
      "type": "event"
    },
    {
      "inputs": [
        {
          "internalType": "uint256",
          "name": "hackathonId",
          "type": "uint256"
        }
      ],
      "name": "calculateWinners",
      "outputs": [],
      "stateMutability": "nonpayable",
      "type": "function"
    },
    {
      "inputs": [],
      "name": "confidentialProtocolId",
      "outputs": [
        {
          "internalType": "uint256",
          "name": "",
          "type": "uint256"
        }
      ],
      "stateMutability": "view",
      "type": "function"
    },
    {
      "inputs": [
        {
          "internalType": "string",
          "name": "name",
          "type": "string"
        },
        {
          "internalType": "string",
          "name": "description",
          "type": "string"
        },
        {
          "internalType": "string",
          "name": "prizeDetails",
          "type": "string"
        },
        {
          "internalType": "uint256",
          "name": "submissionDeadline",
          "type": "uint256"
        },
        {
          "internalType": "uint256",
          "name": "judgingDeadline",
          "type": "uint256"
        },
        {
          "internalType": "uint256",
          "name": "maxParticipants",
          "type": "uint256"
        },
        {
          "internalType": "address[]",
          "name": "judges",
          "type": "address[]"
        }
      ],
      "name": "createHackathon",
      "outputs": [
        {
          "internalType": "uint256",
          "name": "",
          "type": "uint256"
        }
      ],
      "stateMutability": "nonpayable",
      "type": "function"
    },
    {
      "inputs": [
        {
          "internalType": "uint256",
          "name": "",
          "type": "uint256"
        },
        {
          "internalType": "uint256",
          "name": "",
          "type": "uint256"
        }
      ],
      "name": "decryptedScores",
      "outputs": [
        {
          "internalType": "uint256",
          "name": "score",
          "type": "uint256"
        },
        {
          "internalType": "bool",
          "name": "isDecrypted",
          "type": "bool"
        }
      ],
      "stateMutability": "view",
      "type": "function"
    },
    {
      "inputs": [
        {
          "internalType": "uint256",
          "name": "hackathonId",
          "type": "uint256"
        },
        {
          "internalType": "uint256",
          "name": "submissionId",
          "type": "uint256"
        }
      ],
      "name": "getDecryptedScore",
      "outputs": [
        {
          "internalType": "uint256",
          "name": "score",
          "type": "uint256"
        },
        {
          "internalType": "bool",
          "name": "isDecrypted",
          "type": "bool"
        }
      ],
      "stateMutability": "view",
      "type": "function"
    },
    {
      "inputs": [
        {
          "internalType": "uint256",
          "name": "hackathonId",
          "type": "uint256"
        }
      ],
      "name": "getHackathonDetails",
      "outputs": [
        {
          "internalType": "uint256",
          "name": "id",
          "type": "uint256"
        },
        {
          "internalType": "string",
          "name": "name",
          "type": "string"
        },
        {
          "internalType": "string",
          "name": "description",
          "type": "string"
        },
        {
          "internalType": "string",
          "name": "prizeDetails",
          "type": "string"
        },
        {
          "internalType": "uint256",
          "name": "submissionDeadline",
          "type": "uint256"
        },
        {
          "internalType": "uint256",
          "name": "judgingDeadline",
          "type": "uint256"
        },
        {
          "internalType": "address",
          "name": "organizer",
          "type": "address"
        },
        {
          "internalType": "address[]",
          "name": "judges",
          "type": "address[]"
        },
        {
          "internalType": "uint256",
          "name": "maxParticipants",
          "type": "uint256"
        },
        {
          "internalType": "enum Zackathon.HackathonStatus",
          "name": "status",
          "type": "uint8"
        },
        {
          "internalType": "uint256",
          "name": "participantCount",
          "type": "uint256"
        },
        {
          "internalType": "uint256",
          "name": "submissionCount",
          "type": "uint256"
        },
        {
          "internalType": "bool",
          "name": "judgeAccessGranted",
          "type": "bool"
        }
      ],
      "stateMutability": "view",
      "type": "function"
    },
    {
      "inputs": [
        {
          "internalType": "uint256",
          "name": "hackathonId",
          "type": "uint256"
        },
        {
          "internalType": "address",
          "name": "participantAddress",
          "type": "address"
        }
      ],
      "name": "getParticipant",
      "outputs": [
        {
          "internalType": "address",
          "name": "wallet",
          "type": "address"
        },
        {
          "internalType": "string",
          "name": "email",
          "type": "string"
        },
        {
          "internalType": "string",
          "name": "discord",
          "type": "string"
        },
        {
          "internalType": "string",
          "name": "twitter",
          "type": "string"
        },
        {
          "internalType": "string",
          "name": "teamName",
          "type": "string"
        },
        {
          "internalType": "address[]",
          "name": "teamMembers",
          "type": "address[]"
        },
        {
          "internalType": "uint256",
          "name": "registrationTime",
          "type": "uint256"
        },
        {
          "internalType": "bool",
          "name": "hasSubmitted",
          "type": "bool"
        }
      ],
      "stateMutability": "view",
      "type": "function"
    },
    {
      "inputs": [
        {
          "internalType": "uint256",
          "name": "hackathonId",
          "type": "uint256"
        }
      ],
      "name": "getParticipantList",
      "outputs": [
        {
          "internalType": "address[]",
          "name": "",
          "type": "address[]"
        }
      ],
      "stateMutability": "view",
      "type": "function"
    },
    {
      "inputs": [
        {
          "internalType": "uint256",
          "name": "hackathonId",
          "type": "uint256"
        },
        {
          "internalType": "uint256",
          "name": "submissionId",
          "type": "uint256"
        }
      ],
      "name": "getSubmission",
      "outputs": [
        {
          "internalType": "uint256",
          "name": "id",
          "type": "uint256"
        },
        {
          "internalType": "address",
          "name": "participant",
          "type": "address"
        },
        {
          "internalType": "uint256",
          "name": "submissionTime",
          "type": "uint256"
        },
        {
          "internalType": "enum Zackathon.SubmissionStatus",
          "name": "status",
          "type": "uint8"
        },
        {
          "internalType": "uint256",
          "name": "judgeCount",
          "type": "uint256"
        }
      ],
      "stateMutability": "view",
      "type": "function"
    },
    {
      "inputs": [
        {
          "internalType": "uint256",
          "name": "hackathonId",
          "type": "uint256"
        }
      ],
      "name": "getSubmissionCount",
      "outputs": [
        {
          "internalType": "uint256",
          "name": "",
          "type": "uint256"
        }
      ],
      "stateMutability": "view",
      "type": "function"
    },
    {
      "inputs": [
        {
          "internalType": "uint256",
          "name": "hackathonId",
          "type": "uint256"
        },
        {
          "internalType": "uint256",
          "name": "submissionId",
          "type": "uint256"
        }
      ],
      "name": "getSubmissionIPFSHash",
      "outputs": [
        {
          "internalType": "euint256",
          "name": "",
          "type": "bytes32"
        }
      ],
      "stateMutability": "view",
      "type": "function"
    },
    {
      "inputs": [],
      "name": "getTotalHackathons",
      "outputs": [
        {
          "internalType": "uint256",
          "name": "",
          "type": "uint256"
        }
      ],
      "stateMutability": "view",
      "type": "function"
    },
    {
      "inputs": [
        {
          "internalType": "uint256",
          "name": "hackathonId",
          "type": "uint256"
        }
      ],
      "name": "getWinners",
      "outputs": [
        {
          "components": [
            {
              "internalType": "address",
              "name": "participant",
              "type": "address"
            },
            {
              "internalType": "uint256",
              "name": "ranking",
              "type": "uint256"
            },
            {
              "internalType": "uint256",
              "name": "finalScore",
              "type": "uint256"
            },
            {
              "internalType": "uint256",
              "name": "submissionId",
              "type": "uint256"
            }
          ],
          "internalType": "struct Zackathon.Winner[]",
          "name": "",
          "type": "tuple[]"
        }
      ],
      "stateMutability": "view",
      "type": "function"
    },
    {
      "inputs": [
        {
          "internalType": "uint256",
          "name": "hackathonId",
          "type": "uint256"
        }
      ],
      "name": "grantJudgeAccess",
      "outputs": [],
      "stateMutability": "nonpayable",
      "type": "function"
    },
    {
      "inputs": [],
      "name": "hackathonCounter",
      "outputs": [
        {
          "internalType": "uint256",
          "name": "",
          "type": "uint256"
        }
      ],
      "stateMutability": "view",
      "type": "function"
    },
    {
      "inputs": [
        {
          "internalType": "uint256",
          "name": "",
          "type": "uint256"
        }
      ],
      "name": "hackathons",
      "outputs": [
        {
          "internalType": "uint256",
          "name": "id",
          "type": "uint256"
        },
        {
          "internalType": "string",
          "name": "name",
          "type": "string"
        },
        {
          "internalType": "string",
          "name": "description",
          "type": "string"
        },
        {
          "internalType": "string",
          "name": "prizeDetails",
          "type": "string"
        },
        {
          "internalType": "uint256",
          "name": "submissionDeadline",
          "type": "uint256"
        },
        {
          "internalType": "uint256",
          "name": "judgingDeadline",
          "type": "uint256"
        },
        {
          "internalType": "address",
          "name": "organizer",
          "type": "address"
        },
        {
          "internalType": "uint256",
          "name": "maxParticipants",
          "type": "uint256"
        },
        {
          "internalType": "enum Zackathon.HackathonStatus",
          "name": "status",
          "type": "uint8"
        },
        {
          "internalType": "uint256",
          "name": "participantCount",
          "type": "uint256"
        },
        {
          "internalType": "uint256",
          "name": "submissionCount",
          "type": "uint256"
        },
        {
          "internalType": "bool",
          "name": "judgeAccessGranted",
          "type": "bool"
        }
      ],
      "stateMutability": "view",
      "type": "function"
    },
    {
      "inputs": [
        {
          "internalType": "uint256",
          "name": "",
          "type": "uint256"
        },
        {
          "internalType": "uint256",
          "name": "",
          "type": "uint256"
        },
        {
          "internalType": "address",
          "name": "",
          "type": "address"
        }
      ],
      "name": "hasJudgeScored",
      "outputs": [
        {
          "internalType": "bool",
          "name": "",
          "type": "bool"
        }
      ],
      "stateMutability": "view",
      "type": "function"
    },
    {
      "inputs": [
        {
          "internalType": "uint256",
          "name": "",
          "type": "uint256"
        },
        {
          "internalType": "address",
          "name": "",
          "type": "address"
        }
      ],
      "name": "hasRegistered",
      "outputs": [
        {
          "internalType": "bool",
          "name": "",
          "type": "bool"
        }
      ],
      "stateMutability": "view",
      "type": "function"
    },
    {
      "inputs": [
        {
          "internalType": "uint256",
          "name": "hackathonId",
          "type": "uint256"
        },
        {
          "internalType": "address",
          "name": "judge",
          "type": "address"
        }
      ],
      "name": "isHackathonJudge",
      "outputs": [
        {
          "internalType": "bool",
          "name": "",
          "type": "bool"
        }
      ],
      "stateMutability": "view",
      "type": "function"
    },
    {
      "inputs": [
        {
          "internalType": "uint256",
          "name": "",
          "type": "uint256"
        },
        {
          "internalType": "address",
          "name": "",
          "type": "address"
        }
      ],
      "name": "isJudge",
      "outputs": [
        {
          "internalType": "bool",
          "name": "",
          "type": "bool"
        }
      ],
      "stateMutability": "view",
      "type": "function"
    },
    {
      "inputs": [
        {
          "internalType": "uint256",
          "name": "",
          "type": "uint256"
        },
        {
          "internalType": "uint256",
          "name": "",
          "type": "uint256"
        }
      ],
      "name": "participantList",
      "outputs": [
        {
          "internalType": "address",
          "name": "",
          "type": "address"
        }
      ],
      "stateMutability": "view",
      "type": "function"
    },
    {
      "inputs": [
        {
          "internalType": "uint256",
          "name": "",
          "type": "uint256"
        },
        {
          "internalType": "address",
          "name": "",
          "type": "address"
        }
      ],
      "name": "participants",
      "outputs": [
        {
          "internalType": "address",
          "name": "wallet",
          "type": "address"
        },
        {
          "internalType": "string",
          "name": "email",
          "type": "string"
        },
        {
          "internalType": "string",
          "name": "discord",
          "type": "string"
        },
        {
          "internalType": "string",
          "name": "twitter",
          "type": "string"
        },
        {
          "internalType": "string",
          "name": "teamName",
          "type": "string"
        },
        {
          "internalType": "uint256",
          "name": "registrationTime",
          "type": "uint256"
        },
        {
          "internalType": "bool",
          "name": "hasSubmitted",
          "type": "bool"
        }
      ],
      "stateMutability": "view",
      "type": "function"
    },
    {
      "inputs": [
        {
          "internalType": "uint256",
          "name": "",
          "type": "uint256"
        },
        {
          "internalType": "uint256",
          "name": "",
          "type": "uint256"
        }
      ],
      "name": "publicDecryptableScores",
      "outputs": [
        {
          "internalType": "euint256",
          "name": "",
          "type": "bytes32"
        }
      ],
      "stateMutability": "view",
      "type": "function"
    },
    {
      "inputs": [
        {
          "internalType": "uint256",
          "name": "hackathonId",
          "type": "uint256"
        },
        {
          "internalType": "string",
          "name": "email",
          "type": "string"
        },
        {
          "internalType": "string",
          "name": "discord",
          "type": "string"
        },
        {
          "internalType": "string",
          "name": "twitter",
          "type": "string"
        },
        {
          "internalType": "string",
          "name": "teamName",
          "type": "string"
        },
        {
          "internalType": "address[]",
          "name": "teamMembers",
          "type": "address[]"
        }
      ],
      "name": "registerForHackathon",
      "outputs": [],
      "stateMutability": "nonpayable",
      "type": "function"
    },
    {
      "inputs": [
        {
          "internalType": "uint256",
          "name": "",
          "type": "uint256"
        },
        {
          "internalType": "uint256",
          "name": "",
          "type": "uint256"
        },
        {
          "internalType": "address",
          "name": "",
          "type": "address"
        }
      ],
      "name": "scores",
      "outputs": [
        {
          "internalType": "euint16",
          "name": "",
          "type": "bytes32"
        }
      ],
      "stateMutability": "view",
      "type": "function"
    },
    {
      "inputs": [
        {
          "internalType": "uint256",
          "name": "",
          "type": "uint256"
        },
        {
          "internalType": "uint256",
          "name": "",
          "type": "uint256"
        }
      ],
      "name": "submissions",
      "outputs": [
        {
          "internalType": "uint256",
          "name": "submissionId",
          "type": "uint256"
        },
        {
          "internalType": "address",
          "name": "participant",
          "type": "address"
        },
        {
          "internalType": "euint256",
          "name": "encryptedIPFSHash",
          "type": "bytes32"
        },
        {
          "internalType": "uint256",
          "name": "submissionTime",
          "type": "uint256"
        },
        {
          "internalType": "enum Zackathon.SubmissionStatus",
          "name": "status",
          "type": "uint8"
        },
        {
          "internalType": "uint256",
          "name": "totalScores",
          "type": "uint256"
        },
        {
          "internalType": "uint256",
          "name": "judgeCount",
          "type": "uint256"
        }
      ],
      "stateMutability": "view",
      "type": "function"
    },
    {
      "inputs": [
        {
          "internalType": "uint256",
          "name": "hackathonId",
          "type": "uint256"
        },
        {
          "internalType": "uint256[]",
          "name": "clearScores",
          "type": "uint256[]"
        },
        {
          "internalType": "bytes",
          "name": "decryptionProof",
          "type": "bytes"
        }
      ],
      "name": "submitDecryptedScores",
      "outputs": [],
      "stateMutability": "nonpayable",
      "type": "function"
    },
    {
      "inputs": [
        {
          "internalType": "uint256",
          "name": "hackathonId",
          "type": "uint256"
        },
        {
          "internalType": "externalEuint256",
          "name": "encryptedIPFSHash",
          "type": "bytes32"
        },
        {
          "internalType": "bytes",
          "name": "inputProof",
          "type": "bytes"
        }
      ],
      "name": "submitProject",
      "outputs": [],
      "stateMutability": "nonpayable",
      "type": "function"
    },
    {
      "inputs": [
        {
          "internalType": "uint256",
          "name": "hackathonId",
          "type": "uint256"
        },
        {
          "internalType": "uint256",
          "name": "submissionId",
          "type": "uint256"
        },
        {
          "internalType": "externalEuint16",
          "name": "encryptedScore",
          "type": "bytes32"
        },
        {
          "internalType": "bytes",
          "name": "inputProof",
          "type": "bytes"
        }
      ],
      "name": "submitScore",
      "outputs": [],
      "stateMutability": "nonpayable",
      "type": "function"
    },
    {
      "inputs": [
        {
          "internalType": "uint256",
          "name": "",
          "type": "uint256"
        },
        {
          "internalType": "uint256",
          "name": "",
          "type": "uint256"
        }
      ],
      "name": "winners",
      "outputs": [
        {
          "internalType": "address",
          "name": "participant",
          "type": "address"
        },
        {
          "internalType": "uint256",
          "name": "ranking",
          "type": "uint256"
        },
        {
          "internalType": "uint256",
          "name": "finalScore",
          "type": "uint256"
        },
        {
          "internalType": "uint256",
          "name": "submissionId",
          "type": "uint256"
        }
      ],
      "stateMutability": "view",
      "type": "function"
    }
  ],
  "bytecode": "0x60406080815234620001e557620000156200021d565b5046600103620000f657620000296200021d565b5062000034620001e9565b5f81525f60208201525f828201525b80517f9e7b61f58c47dc699ac88507c4f5bb9f121c03808c5676a8078fe583e464970080546001600160a01b03199081166001600160a01b039384161790915560208301517f9e7b61f58c47dc699ac88507c4f5bb9f121c03808c5676a8078fe583e464970180548316918416919091179055918301517f9e7b61f58c47dc699ac88507c4f5bb9f121c03808c5676a8078fe583e4649702805490931691161790555f80555161396d90816200023a8239f35b4662aa36a70362000166576200010b6200021d565b5062000116620001e9565b73f0ffdc93b7e186bc2f8cb3daa75d86d1930a433d81527392c920834ec8941d2c77d188936e1f7a6f49c127602082015273be0e383937d564d7ff0bc3b46c51f0bf8d5c311a8282015262000043565b46617a6903620001d5576200017a6200021d565b5062000185620001e9565b7350157cffd6bbfa2dece204a89ec419c23ef5755d815273e3a9105a3a932253a70f126eb1e3b589c643dd24602082015273901f8942346f7ab3a01f6d7613119bca447bb0308282015262000043565b516373cac13b60e01b8152600490fd5b5f80fd5b60405190606082016001600160401b038111838210176200020957604052565b634e487b7160e01b5f52604160045260245ffd5b62000227620001e9565b905f82525f60208301525f604083015256fe60806040526004361015610011575f80fd5b60e05f35811c90816302e060c6146130415781630efc886514612fde57816320b2d97014612f7457816335f3ad7a14612e58578163398aa419146127c457816340aca1b1146127a8578163550aeaef146127a857816356fc156714611fe65781636260742f14611fa557816362dbdac214611be957816367053c631461167057816369c1fc25146115e55781636b1426a4146114d05781637be24cb8146114895781638927b03014611467578163a25232f51461141e578163a8516d5814611348578163b03713db146112fb578163b7ed70711461125b578163c107719414611159578163c67e69f714610f94578163c810ff0514610e5557508063d28537ee14610e0d578063d62e08aa14610da6578063d8d645f914610a25578063e484d661146109df578063e7ba115e146109b0578063ea7870e214610951578063ec95bbea146101b35763ef15914a14610166575f80fd5b346101af5760403660031901126101af5761017f61311c565b6004355f52600960205260405f209060018060a01b03165f52602052602060ff60405f2054166040519015158152f35b5f80fd5b346101af5760603660031901126101af576024356001600160401b0381116101af57366023820112156101af5780600401356101ee8161337b565b916101fc6040519384613198565b818352602083016024819360051b830101913683116101af57602401905b828210610941575050506044356001600160401b0381116101af57366023820112156101af57610254903690602481600401359101613318565b906004355f52600160205261027960018060a01b03600660405f2001541633146135f7565b600435151580610934575b61028d906134a1565b6004355f52600160205260ff600960405f200154166004811015610920576003036108e2576004355f52600460205260405f2083518154036108a6578351916102ee6102d88461337b565b936102e66040519586613198565b80855261337b565b601f19013660208501375f5b8551811015610330576001906004355f52600a60205260405f20815f5260205260405f2054610329828761355c565b52016102fa565b50909260405180926040820160208084015287518091526060830191905f5b81811061088d575050505f926103736020936103f09303601f198101875286613198565b7f9e7b61f58c47dc699ac88507c4f5bb9f121c03808c5676a8078fe583e4649702546040516378542ead60e01b8152606060048201529485936001600160a01b0390921692849283916103de6103cc606485018d6137db565b8481036003190160248601528b61325b565b8381036003190160448501529061325b565b03925af1908115610882575f91610847575b5015610835577fc6366bab028b8d033cb362cfd1f2f3457ef4e92fc738b6788b90d5a7846367a091610453610445926040519384936040855260408501906137db565b90838203602085015261325b565b0390a15f5b82518110156105195761046b818461355c565b519060405160408101928184106001600160401b038511176105055760019360405281528260208201918183526004355f52600b60205260405f20845f5260205260405f2090518155019051151560ff80198354169116179055806104d0818661355c565b516040519081527fc8416d70171afbbc993658db4663e3ffb884850af7db19e4c845c909c96565b1602060043592a301610458565b634e487b7160e01b5f52604160045260245ffd5b505f80925f80935f80925f935b85518510156105c7578761053a868861355c565b511115610562575050939461054f838561355c565b51916001845b0193979596909296610526565b8261057386889b979b9a969a61355c565b5111156105925750509394610588878561355c565b5190600188610555565b9597866105a282889a949a61355c565b51116105b1575b600190610555565b965094506105bf868561355c565b5194866105a9565b869450889392886004355f52600760205260405f208054905f8155816107d9575b5050600185541015610782575b5060028454101561072b575b506003835410156106d4575b50815492600184106106cc576106239083613459565b50600101546001600160a01b0316935b600284106106c25761064760039184613459565b50600101546001600160a01b0316935b106106b95761066591613459565b50600101546001600160a01b0316905b6040516001600160a01b0392831681529082169290911690600435907f8a034bda65d720824c3274b9ec05c7f837be3eddc5ff1290964679d24e381f5390602090a4005b50505f90610675565b5060035f93610657565b505f93610633565b610725906004355f52600760205260405f206106f08486613459565b506001015460405192906001600160a01b031661070c8461317d565b8352600360208401526040830152836060830152613737565b8461060d565b61077c906004355f52600760205260405f206107478887613459565b506001015460405192906001600160a01b03166107638461317d565b8352600260208401526040830152876060830152613737565b85610601565b6107d3906004355f52600760205260405f2061079e8888613459565b506001015460405192906001600160a01b03166107ba8461317d565b8352600160208401526040830152876060830152613737565b866105f5565b6001600160fe1b0382168203610821575f5260205f20805b8260021b8201811061080357506105e8565b805f600492555f60018201555f60028201555f6003820155016107f1565b634e487b7160e01b5f52601160045260245ffd5b60405163cf6c44e960e01b8152600490fd5b90506020813d60201161087a575b8161086260209383613198565b810103126101af575180151581036101af5785610402565b3d9150610855565b6040513d5f823e3d90fd5b825184528694506020938401939092019160010161034f565b60405162461bcd60e51b81526020600482015260146024820152730a6c6dee4ca40c6deeadce840dad2e6dac2e8c6d60631b6044820152606490fd5b60405162461bcd60e51b815260206004820152601660248201527515da5b9b995c9cc81b9bdd0818d85b18dd5b185d195960521b6044820152606490fd5b634e487b7160e01b5f52602160045260245ffd5b505f546004351115610284565b813581526020918201910161021a565b346101af5760203660031901126101af57600435801515806109a5575b610977906134a1565b5f5260036020526109a161098d60405f206134e1565b6040519182916020835260208301906132dc565b0390f35b505f5481111561096e565b346101af576109be36613299565b905f52600a60205260405f20905f52602052602060405f2054604051908152f35b346101af576109ed36613402565b915f52600660205260405f20905f5260205260405f209060018060a01b03165f52602052602060ff60405f2054166040519015158152f35b346101af5760803660031901126101af576004356024356064356001600160401b0381116101af57610a5b90369060040161342c565b9083151580610d9b575b610a6e906134a1565b835f526020916008835260405f20335f528352610a9160ff60405f205416613671565b845f5260018352610aab600460405f2001544210156136eb565b845f5260018352600560405f200154421015610d5657845f526001835260ff600c60405f2001541615610d1157845f5260048352610aee60405f205485106136aa565b845f526006835260405f20845f52835260405f20335f52835260ff60405f205416610cdb575f91610b20913691613318565b82610b7060018060a01b0392835f805160206138f883398151915254169060405195868094819363045fc19560e11b8352604435600484015233602484015260806044840152608483019061325b565b6003606483015203925af1918215610882575f92610cac575b505f805160206139188339815191525416803b156101af57604051630f8e573b60e21b815260048101839052336024820152905f908290604490829084905af1801561088257610c9d575b50610bdf308261380e565b610be9338261380e565b835f526005825260405f20835f52825260405f20335f52825260405f2055825f526006815260405f20825f52815260405f20335f528152600460405f209160ff1992600184825416179055845f528181526006610c498560405f20613459565b5001610c558154613538565b9055845f525260016004610c6c8460405f20613459565b50019182541617905533917fe35676a745cba832d1d20a51ab04898e6d5fb27fd7ed9c23806ccaa47f8ef3e25f80a4005b610ca69061316a565b84610bd4565b9091508281813d8311610cd4575b610cc48183613198565b810103126101af57519085610b89565b503d610cba565b60405162461bcd60e51b815260048101849052600e60248201526d105b1c9958591e481cd8dbdc995960921b6044820152606490fd5b60405162461bcd60e51b815260048101849052601860248201527f4a7564676520616363657373206e6f74206772616e74656400000000000000006044820152606490fd5b60405162461bcd60e51b815260048101849052601760248201527f4a756467696e6720646561646c696e65207061737365640000000000000000006044820152606490fd5b505f54841115610a65565b346101af5760403660031901126101af57600435610dc261311c565b9080151580610e02575b610dd5906134a1565b5f52600860205260405f209060018060a01b03165f52602052602060ff60405f2054166040519015158152f35b505f54811115610dcc565b346101af57610e1b36613299565b905f52600360205260405f2080548210156101af57602091610e3c9161348c565b905460405160039290921b1c6001600160a01b03168152f35b346101af5760203660031901126101af5760043580151580610f89575b610e7b906134a1565b5f52600160205260405f208054906004810154600582015493600160a01b6001900360068401541691600884015493600981015460ff1690600a81015492600b82015494600c83015460ff169660018401610ed5906131b9565b9a610ee2600286016131b9565b94610eef600382016131b9565b90600701610efc906134e1565b956040519d8e9d8e6101a091815281602082015201610f1a9161325b565b8d810360408f0152610f2b9161325b565b8c810360608e0152610f3c9161325b565b9360808c015260a08b015260c08a015288820390890152610f5c916132dc565b946101008701526101208601610f719161347f565b61014085015261016084015215156101808301520390f35b505f54811115610e72565b346101af576020806003193601126101af57600435805f5260019182815260018060a01b0392610fce84600660405f2001541633146135f7565b8215158061114e575b610fe0906134a1565b825f52808252610ff9600460405f2001544210156136eb565b825f5280825260ff600c60405f200154166111105792825f526004825261102560405f20541515613634565b825f5283825260405f20600483528460405f20925f60078401925b611091575b505050936002600986600c7f5d65237123d74a13dce85483436289d6e78bfa10bfa146a1e2e828b53cb7b62b97980160ff199485825416179055019182541617905554604051908152a2005b845481101561110b5790878260026110ac8397969589613459565b5001545f835b6110cd575b506110c390309061380e565b0190919293611040565b85939192935481101561110257806110f8866110ea85948a61348c565b90549060031b1c168561380e565b01819392916110b2565b929190926110b7565b611045565b60405162461bcd60e51b81526004810183905260166024820152751058d8d95cdcc8185b1c9958591e4819dc985b9d195960521b6044820152606490fd5b505f54831115610fd7565b346101af5760203660031901126101af576004355f52600160205260405f209081549060018301611189906131b9565b92611196600282016131b9565b906111a3600382016131b9565b600482015493600583015490600160a01b6001900360068501541690600885015491600986015460ff1693600a87015495600b88015497600c015460ff16986040519c8d809d6101809182918152602001528d016112009161325b565b8c810360408e01526112119161325b565b8b810360608d01526112229161325b565b9860808b015260a08a015260c089015287015261010086016112439161347f565b61012085015261014084015215156101608301520390f35b346101af5760a06112a861126e36613299565b90801515806112f0575b611281906134a1565b805f52600460205261129860405f205483106136aa565b5f52600460205260405f20613459565b508054906112e9600180851b03600183015416916003810154600660ff60048401541692015493604051958652602086015260408501526060840190613472565b6080820152f35b505f54811115611278565b346101af5761130936613299565b905f52600b60205260405f20905f5260205260405f2060ff6001825492015416906109a160405192839283909291602090604083019483521515910152565b346101af5761135636613299565b81151580611413575b611368906134a1565b815f526020916008835260405f20335f52835261138b60ff60405f205416613671565b805f526001835260ff600c60405f20015416156113d957600291816113ce925f52600485526113bf60405f205483106136aa565b5f526004845260405f20613459565b500154604051908152f35b60405162461bcd60e51b81526004810184905260126024820152711058d8d95cdcc81b9bdd0819dc985b9d195960721b6044820152606490fd5b505f5482111561135f565b346101af5760403660031901126101af5761143761311c565b6004355f52600860205260405f209060018060a01b03165f52602052602060ff60405f2054166040519015158152f35b346101af575f3660031901126101af5760206114816137ac565b604051908152f35b346101af5760203660031901126101af57600435801515806114c5575b6114af906134a1565b5f526004602052602060405f2054604051908152f35b505f548111156114a6565b346101af576020806003193601126101af57600435801515806115da575b6114f7906134a1565b5f526007815260405f2090815461150d8161337b565b9061151b6040519283613198565b80825282820180945f52835f205f915b838310611593576040805187815286518189018190528992820190895f5b8281106115565784840385f35b855180516001600160a01b031685528083015185840152604080820151908601526060908101519085015294810194608090930192600101611549565b6004866001926040516115a58161317d565b848060a01b0386541681528486015483820152600286015460408201526003860154606082015281520192019201919061152b565b505f548111156114ee565b346101af576115f336613299565b905f52600460205260405f209081548110156101af5761161291613459565b5080549060018060a01b03600182015416906116646002820154600383015460ff6004850154169160066005860154950154956040519788526020880152604087015260608601526080850190613472565b60a083015260c0820152f35b346101af5760203660031901126101af576004355f52600160205260066116a760018060a01b03600660405f2001541633146135f7565b600435151580611bdc575b6116bb906134a1565b6004355f526001602052600560405f2001544210611b97576004355f52600160205260ff80600960405f20015416600481101561092057600203611b5b576004355f52600460205260405f2090815490611716821515613634565b6004355f526001602052600760405f200154935f5b838110611a905785855f5b8154811015611a4257611747613875565b905f5b8481106118b9575060018060a01b035f805160206138f8833981519152541691604051906307227b9160e21b825260048201526020816044815f6024976008898401525af1908115610882575f91611887575b506004355f908152600a6020908152604080832085845290915290819020829055805193919084018481106001600160401b03821117611874576040526001845260208401602036823784511561186157525f80516020613918833981519152546001600160a01b031692833b156101af57611838935f9283604051809781958294637d6e912360e11b8452602060048501528301906137db565b03925af191821561088257600192611852575b5001611736565b61185b9061316a565b8461184b565b82634e487b7160e01b5f5260326004525ffd5b82634e487b7160e01b5f5260416004525ffd5b90506020813d6020116118b1575b816118a260209383613198565b810103126101af57518561179d565b3d9150611895565b916004355f5260016020526118d483600760405f200161348c565b9054906004355f52600560205260405f20845f5260205260405f209160018060a01b039160031b1c165f526020525f60206040822054604460018060a01b035f805160206138f883398151915254169160405194859384926307227b9160e21b84526004840152600560248401525af1908115610882575f91611a10575b50808215611a00575b156119ee575b602090606460018060a01b035f805160206138f88339815191525416935f604051958694859363022f65e760e31b8552600485015260248401528160448401525af18015610882575f906119bb575b60019150920161174a565b506020813d6020116119e6575b816119d560209383613198565b810103126101af57600190516119b0565b3d91506119c8565b5060206119f9613875565b9050611961565b9150611a0a613875565b9161195b565b90506020813d602011611a3a575b81611a2b60209383613198565b810103126101af575186611952565b3d9150611a1e565b506004355f526001602052600960405f2001600360ff19825416179055546040519081527f32a99d48b5ac6ec14a69f9ddf0d00e1ca6c411b8d0129d6eb239bb84c0766fc1602060043592a2005b855f805b828110611ae6575003611aa95760010161172b565b60405162461bcd60e51b8152602060048201526015602482015274139bdd08185b1b081a9d5919d95cc81cd8dbdc9959605a1b6044820152606490fd5b9091506004355f526001602052611b0381600760405f200161348c565b9054906004355f528560205260405f20855f5260205260405f209160018060a01b039160031b1c165f526020528460405f205416611b47575b600101908791611a94565b90611b53600191613538565b919050611b3c565b60405162461bcd60e51b81526020600482015260146024820152734e6f7420696e206a756467696e6720706861736560601b6044820152606490fd5b60405162461bcd60e51b815260206004820152601c60248201527f4a756467696e6720646561646c696e65206e6f742072656163686564000000006044820152606490fd5b505f5460043511156116b2565b346101af5760603660031901126101af576001600160401b0360043560246044358381116101af57611c1f90369060040161342c565b949083151580611f9a575b611c33906134a1565b835f5260209560018752611c4f600460405f20015442106135ab565b845f526009875260405f20335f52875260ff60405f20541615611f6557845f526002875260405f20335f52875260ff600760405f20015416611f2d5790611c97913691613318565b5f805160206138f88339815191525460405163045fc19560e11b8152843560048201523385820152608060448201526001600160a01b039290918891839185169082905f908290611cec90608483019061325b565b6008606483015203925af1908115610882575f91611f00575b50815f805160206139188339815191525416803b156101af57604051630f8e573b60e21b815260048101839052336024820152905f908290604490829084905af1801561088257611ef1575b50611d5c308261380e565b611d66338261380e565b845f526004875260405f2054956040519384019084821090821117611ede5760405285835286830190338252604084019081526060840142815260808501915f835260a08601935f855260c08701955f8752895f5260048c5260405f20805490600160401b821015611ecb5790611de291600182018155613459565b989098611eb957518855600188019151166001600160601b0360a01b825416179055516002860155516003850155600484019051946002861015611ea65750906006929160ff199560ff87835416911617905551600584015551910155815f526002845260405f20335f5284526001600760405f200191825416179055805f5260018352600b60405f2001611e778154613538565b90557f9917c4af1caa6facf6440c82e2bb687b55bb116dde204e5256c4360b060b8e6d604051934285523394a4005b634e487b7160e01b5f9081526021600452fd5b89634e487b7160e01b5f525f6004525ffd5b8a634e487b7160e01b5f5260416004525ffd5b84634e487b7160e01b5f5260416004525ffd5b611efa9061316a565b87611d51565b90508681813d8311611f26575b611f178183613198565b810103126101af575187611d05565b503d611f0d565b60405162461bcd60e51b81526004810188905260118186015270105b1c9958591e481cdd589b5a5d1d1959607a1b6044820152606490fd5b60405162461bcd60e51b815260048101889052600e818601526d139bdd081c9959da5cdd195c995960921b6044820152606490fd5b505f54841115611c2a565b346101af57611fb336613402565b915f52600560205260405f20905f5260205260405f209060018060a01b03165f52602052602060405f2054604051908152f35b346101af5760c03660031901126101af576024356001600160401b0381116101af5761201690369060040161335d565b6044356001600160401b0381116101af5761203590369060040161335d565b6064356001600160401b0381116101af5761205490369060040161335d565b906084356001600160401b0381116101af5761207490369060040161335d565b60a4356001600160401b0381116101af57612093903690600401613392565b9060043515158061279b575b6120a8906134a1565b6004355f5260016020526120c4600460405f20015442106135ab565b6004355f52600960205260405f20335f5260205260ff60405f2054166127615784511561272b576004355f52600860205260405f20335f5260205260ff60405f2054166126e6576004355f52600160205260405f2093600885015480612690575b506004355f52600260205260405f20335f5260205260405f2093336001600160601b0360a01b86541617855586516001600160401b0381116105055761216e6001870154613132565b601f811161265d575b50806020601f82116001146125f3575f916125e8575b508160011b915f199060031b1c19161760018601555b8051906001600160401b0382116105055781906121c36002880154613132565b601f81116125b5575b50602090601f8311600114612547575f9261253c575b50508160011b915f199060031b1c19161760028501555b8051906001600160401b0382116105055781906122196003870154613132565b601f8111612509575b50602090601f831160011461249b575f92612490575b50508160011b915f199060031b1c19161760038401555b805160048401916001600160401b0382116105055781906122708454613132565b601f8111612455575b50602090601f83116001146123f1575f926123e6575b50508160011b915f199060031b1c19161790555b600582018151916001600160401b03831161050557600160401b83116105055760209082548484558085106123cb575b5001905f5260205f205f5b8381106123ae5786866009600788426006820155019160ff19928381541690556004355f5260036020526123153360405f20613570565b6004355f528160205260405f20335f5260205260405f20600184825416179055600a81016123438154613538565b9055019081549060ff8216600481101561092057156123a0575b8360405190602082527fcf647d5cfb3a82f1cd4aaa5ac00619704552eed9b7fbbaa40450b5bb0db5da4f33928061239b60043594602083019061325b565b0390a3005b16600117905581808061235d565b82516001600160a01b0316818301556020909201916001016122de565b6123e090845f5285845f209182019101613546565b876122d3565b01519050878061228f565b5f858152602081209350601f198516905b81811061243d5750908460019594939210612425575b505050811b0190556122a3565b01515f1960f88460031b161c19169055878080612418565b92936020600181928786015181550195019301612402565b61248090855f5260205f20601f850160051c81019160208610612486575b601f0160051c0190613546565b88612279565b9091508190612473565b015190508780612238565b9250600386015f5260205f20905f935b601f19841685106124ee576001945083601f198116106124d6575b505050811b01600384015561224f565b01515f1960f88460031b161c191690558780806124c6565b818101518355602094850194600190930192909101906124ab565b61253690600388015f5260205f20601f850160051c8101916020861061248657601f0160051c0190613546565b88612222565b0151905088806121e2565b9250600287015f5260205f20905f935b601f198416851061259a576001945083601f19811610612582575b505050811b0160028501556121f9565b01515f1960f88460031b161c19169055888080612572565b81810151835560209485019460019093019290910190612557565b6125e290600289015f5260205f20601f850160051c8101916020861061248657601f0160051c0190613546565b896121cc565b90508801518961218d565b9150600187015f5260205f205f925b8a601f198416851061264657506001935082601f1981161061262e575b5050811b0160018601556121a3565b8a01515f1960f88460031b161c19169055898061261f565b810151825560209384019360019092019101612602565b61268a90600188015f5260205f20601f840160051c8101916020851061248657601f0160051c0190613546565b88612177565b600a86015410156126a15786612125565b60405162461bcd60e51b815260206004820152601860248201527f4d6178207061727469636970616e7473207265616368656400000000000000006044820152606490fd5b60405162461bcd60e51b815260206004820152601960248201527f4a75646765732063616e6e6f74207061727469636970617465000000000000006044820152606490fd5b60405162461bcd60e51b815260206004820152600e60248201526d115b585a5b081c995c5d5a5c995960921b6044820152606490fd5b60405162461bcd60e51b8152602060048201526012602482015271105b1c9958591e481c9959da5cdd195c995960721b6044820152606490fd5b505f54600435111561209f565b346101af575f3660031901126101af5760205f54604051908152f35b346101af573660031901126101af576004356001600160401b0381116101af576127f290369060040161335d565b6024356001600160401b0381116101af5761281190369060040161335d565b906044356001600160401b0381116101af5761283190369060040161335d565b60c4356001600160401b0381116101af57612850903690600401613392565b90825115612e2357426064351115612dde576064356084351115612d99576001825110612d54576128815f54613538565b90815f55815f52600160205260405f209482865584516001600160401b038111610505576128b26001880154613132565b601f8111612d21575b50806020601f8211600114612cb8575f91612cad575b508160011b915f199060031b1c19161760018701555b8051906001600160401b0382116105055781906129076002890154613132565b601f8111612c7a575b50602090601f8311600114612c0c575f92612c01575b50508160011b915f199060031b1c19161760028601555b8051906001600160401b03821161050557819061295d6003880154613132565b601f8111612bce575b50602090601f8311600114612b63575f92612b58575b50508160011b915f199060031b1c19161760038501555b6064356004850155608435600585015560068401336001600160601b0360a01b82541617905560a43560088501556009840160ff1981541690555f600a8501555f600b850155600c840160ff1981541690555f5b8251811015612aff576001600160a01b03612a02828561355c565b511615612ac257336001600160a01b03612a1c838661355c565b511614612a7d57600190612a466001600160a01b03612a3b838761355c565b511660078801613570565b825f52600860205260405f20828060a01b03612a62838761355c565b51165f5260205260405f208260ff19825416179055016129e7565b60405162461bcd60e51b815260206004820152601960248201527f4f7267616e697a65722063616e6e6f74206265206a75646765000000000000006044820152606490fd5b60405162461bcd60e51b8152602060048201526015602482015274496e76616c6964206a75646765206164647265737360581b6044820152606490fd5b60208285817f686c4820ff7e9a910ca6759cd4b43eea90e9158c9b9385c2f93ba81eb5ed2787612b3a6040519360608552606085019061325b565b926064358682015260843560408201528033940390a3604051908152f35b01519050868061297c565b600388015f908152602081209350601f198516905b818110612bb65750908460019594939210612b9e575b505050811b016003850155612993565b01515f1960f88460031b161c19169055868080612b8e565b92936020600181928786015181550195019301612b78565b612bfb90600389015f5260205f20601f850160051c8101916020861061248657601f0160051c0190613546565b87612966565b015190508780612926565b9250600288015f5260205f20905f935b601f1984168510612c5f576001945083601f19811610612c47575b505050811b01600286015561293d565b01515f1960f88460031b161c19169055878080612c37565b81810151835560209485019460019093019290910190612c1c565b612ca79060028a015f5260205f20601f850160051c8101916020861061248657601f0160051c0190613546565b88612910565b9050860151886128d1565b9150600188015f5260205f205f925b601f1983168410612d09576001935082601f19811610612cf1575b5050811b0160018701556128e7565b8801515f1960f88460031b161c191690558880612ce2565b88810151825560209384019360019092019101612cc7565b612d4e90600189015f5260205f20601f840160051c8101916020851061248657601f0160051c0190613546565b876128bb565b60405162461bcd60e51b815260206004820152601860248201527f4d696e696d756d2031206a7564676520726571756972656400000000000000006044820152606490fd5b60405162461bcd60e51b815260206004820152601860248201527f496e76616c6964206a756467696e6720646561646c696e6500000000000000006044820152606490fd5b60405162461bcd60e51b815260206004820152601b60248201527f496e76616c6964207375626d697373696f6e20646561646c696e6500000000006044820152606490fd5b60405162461bcd60e51b815260206004820152600d60248201526c13985b59481c995c5d5a5c9959609a1b6044820152606490fd5b346101af5760403660031901126101af5760043590612e7561311c565b9180151580612f69575b612e88906134a1565b5f52600260205260405f2060018060a01b038093165f5260205260405f20918254169060068301549060ff600785015416612f59612ec8600187016131b9565b95612f4b612ed8600283016131b9565b91612f3d612ee8600383016131b9565b612f2f612f036005612efc600487016131b9565b95016134e1565b95612f216040519d8e9d8e610100918152816020820152019061325b565b8c810360408e01529061325b565b908a820360608c015261325b565b9088820360808a015261325b565b9086820360a08801526132dc565b9260c08501521515908301520390f35b505f54811115612e7f565b346101af57612f8236613299565b9080151580612fd3575b612f95906134a1565b5f52600b60205260405f20905f5260205260405f2060ff6001825492015416906109a160405192839283909291602090604083019483521515910152565b505f54811115612f8c565b346101af57612fec36613299565b905f52600760205260405f2080548210156101af5760809161300d916132af565b5060018060a01b03815416906001810154906003600282015491015491604051938452602084015260408301526060820152f35b346101af5760403660031901126101af5761305a61311c565b6004355f52600260205260405f2060018060a01b038092165f5260205260405f20908154169061308c600182016131b9565b61310b61309b600284016131b9565b6130fd6130aa600386016131b9565b6130ef6130b9600488016131b9565b936130e160ff600760068b01549a015416976040519b8c9b8c528060208d01528b019061325b565b9089820360408b015261325b565b90878203606089015261325b565b90858203608087015261325b565b9160a0840152151560c08301520390f35b602435906001600160a01b03821682036101af57565b90600182811c92168015613160575b602083101461314c57565b634e487b7160e01b5f52602260045260245ffd5b91607f1691613141565b6001600160401b03811161050557604052565b608081019081106001600160401b0382111761050557604052565b90601f801991011681019081106001600160401b0382111761050557604052565b9060405191825f82546131cb81613132565b908184526020946001916001811690815f1461323957506001146131fb575b5050506131f992500383613198565b565b5f90815285812095935091905b8183106132215750506131f993508201015f80806131ea565b85548884018501529485019487945091830191613208565b925050506131f994925060ff191682840152151560051b8201015f80806131ea565b91908251928382525f5b848110613285575050825f602080949584010152601f8019910116010190565b602081830181015184830182015201613265565b60409060031901126101af576004359060243590565b80548210156132c8575f5260205f209060021b01905f90565b634e487b7160e01b5f52603260045260245ffd5b9081518082526020808093019301915f5b8281106132fb575050505090565b83516001600160a01b0316855293810193928101926001016132ed565b9291926001600160401b0382116105055760405191613341601f8201601f191660200184613198565b8294818452818301116101af578281602093845f960137010152565b9080601f830112156101af5781602061337893359101613318565b90565b6001600160401b0381116105055760051b60200190565b9080601f830112156101af5760209082356133ac8161337b565b936133ba6040519586613198565b81855260208086019260051b8201019283116101af57602001905b8282106133e3575050505090565b81356001600160a01b03811681036101af5781529083019083016133d5565b60609060031901126101af5760043590602435906044356001600160a01b03811681036101af5790565b9181601f840112156101af578235916001600160401b0383116101af57602083818601950101116101af57565b80548210156132c8575f52600760205f20910201905f90565b9060028210156109205752565b9060048210156109205752565b80548210156132c8575f5260205f2001905f90565b156134a857565b60405162461bcd60e51b815260206004820152601160248201527024b73b30b634b2103430b1b5b0ba3437b760791b6044820152606490fd5b90604051918281549182825260209260208301915f5260205f20935f905b828210613515575050506131f992500383613198565b85546001600160a01b0316845260019586019588955093810193909101906134ff565b5f1981146108215760010190565b818110613551575050565b5f8155600101613546565b80518210156132c85760209160051b010190565b8054600160401b8110156105055761358d9160018201815561348c565b60018060a09493941b038084549260031b9316831b921b1916179055565b156135b257565b60405162461bcd60e51b815260206004820152601a60248201527f5375626d697373696f6e20646561646c696e65207061737365640000000000006044820152606490fd5b156135fe57565b60405162461bcd60e51b815260206004820152600e60248201526d27b7363c9037b933b0b734bd32b960911b6044820152606490fd5b1561363b57565b60405162461bcd60e51b815260206004820152600e60248201526d4e6f207375626d697373696f6e7360901b6044820152606490fd5b1561367857565b60405162461bcd60e51b815260206004820152600a6024820152694f6e6c79206a7564676560b01b6044820152606490fd5b156136b157565b60405162461bcd60e51b815260206004820152601260248201527124b73b30b634b21039bab136b4b9b9b4b7b760711b6044820152606490fd5b156136f257565b60405162461bcd60e51b815260206004820152601f60248201527f5375626d697373696f6e20646561646c696e65206e6f742072656163686564006044820152606490fd5b8054600160401b81101561050557613754916001820181556132af565b91909161379957805182546001600160a01b0319166001600160a01b039190911617825560208101516001830155604081015160028301556060015160039190910155565b634e487b7160e01b5f525f60045260245ffd5b466001036137b957600190565b4662aa36a7036137c95761271190565b617a6946146137d6575f90565b5f1990565b9081518082526020808093019301915f5b8281106137fa575050505090565b8351855293810193928101926001016137ec565b5f80516020613918833981519152546001600160a01b031691823b156101af57604051635ca4b5b160e11b815260048101929092526001600160a01b03166024820152905f908290604490829084905af180156108825761386c5750565b6131f99061316a565b5f805160206138f883398151915254604051639cd07acb60e01b81525f60048201819052600560248301529091602091839160449183916001600160a01b03165af1908115610882575f916138c8575090565b90506020813d6020116138ef575b816138e360209383613198565b810103126101af575190565b3d91506138d656fe9e7b61f58c47dc699ac88507c4f5bb9f121c03808c5676a8078fe583e46497019e7b61f58c47dc699ac88507c4f5bb9f121c03808c5676a8078fe583e4649700a2646970667358221220e8a65e849d1393f56b4c4bca15d5cd1ec7d93a5474fd2096dcfeccd9bb9e3d3e64736f6c63430008180033",
  "linkReferences": {},
  "deployedLinkReferences": {}
}